:0C02970048454C4C4F20574F524C44003F
:10024600120274E4FD7F0112019A7BFF7A0279970C
:090256007D027F011201E780EA3C
:06028800C2A58F80D2A781
:08028E007F027EEFDEFEDFFCC3
:010296002245
:0A02AF00C2A6120288C2A702028E46
:10020A00CFCDCFCECCCE1200427C007D0A12004266
:04021A00ED2430FFA0
:0A021E00D2A6120288C2A702028EC7
:10022800AE07EEFB7A0064017004ED148009EB64FC
:0E023800024A7009ED243F4480FF1202AF22FB
:100274007F381202AF7F0C1202AF7F061202AF7FEB
:04028400010202AFC2
:0A02B900AC03120228AF0402021E7B
:0601E7008B228A2389240B
:1001ED00120228E4FDAB22AA23A9248D8275830077
:0C01FD00120003FF600612021E0D80E9D4
:0102090022D2
:0A016900EF24FFFDEE34FFFC7F0AD7
:080173008E1E8F1F8C208D21D0
:10017B007F017E00E4FBEBC39521E5206480F874DE
:0E018B008098500AAC1EAD1F1200300B80E8A9
:010199002243
:0401C3008A118B1200
:1001C700120228AA13EAFF7E00D394007480948059
:0F01D700400D120169AC11AD1212020A1A80E636
:0101E60022F6
:0400E2008B828A8300
:1000E600120228C3E58364809480400D7F2B1202A0
:1000F6001E85830D85820E80107F2D12021EC3E49D
:100106009582F50EE49583F50DAA0CEAFF7E00D3E1
:10011600940074809480400D120169AC0DAD0E12EE
:05012600020A1A80E648
:01012B0022B1
:040097008A168B1723
:10009B00120228AA18EAD39400748094804037EA9D
:1000AB0024FFFDE434FFFC7F107E00120173AC16BD
:1000BB00AD17CFCDCFCECCCE120042EF540FFEC337
:1000CB00940A74809480EE5004243080022437FF0D
:0600DB0012021E1A80BF94
:0100E10022FC
:04012C008A1B8B1C83
:10013000120228AA1DEAFF7E00D3940074809480E6
:100140004026EF24FFFDEE34FFFC7F02120173AC6A
:100150001BAD1CCFCDCFCECCCE120042EF5401242C
:0801600030FF12021E1A80CDCF
:010168002274
:10019A00AC07EC3395E0FEEF64014E7007ED248066
:1001AA00FF1202AFAF04EF3395E0FEEF64024E7028
:0901BA0007ED24C0FF1202AF2280
:10025F00EF1FAC0670011E4C600A7D027CEFDCFEC6
:04026F00DDFC80EC46
:010273002268
:030000000202A356
:0C02A300787FE4F6D8FD75812402024645
:10000300BB010CE58229F582E5833AF583E02250B2
:1000130006E92582F8E622BBFE06E92582F8E222FC
:0D002300E58229F582E5833AF583E4932216
:10003000EF8DF0A4A8F0CF8CF0A428CE8DF0A42EE4
:02004000FE229E
:10004200BC000BBE0029EF8DF084FFADF022E4CCA2
:10005200F875F008EF2FFFEE33FEEC33FCEE9DEC6B
:10006200984005FCEE9DFE0FD5F0E9E4CEFD22EDB1
:10007200F8F5F0EE8420D21CFEADF075F008EF2FFB
:10008200FFED33FD4007985006D5F0F222C398FDEC
:050092000FD5F0EA2289
:00000001FF
