:0C0194000A083F065B4F666D7D077F6F19
:10017200AC06AD07D3ED9400EC940040147A007BFA
:1001820072EB1B70011AEB4A70F7ED1D70E61C80D2
:01019200E389
:010193002249
:04000300AB07AA0697
:100007007C007D6412011D8E128F137C007D64AF0E
:1000170003AE0212011D7E007F0ACFCDCFCECCCE1C
:1000270012011D8E148F15AE02AF037C007D0A12DC
:10003700011D8D827580FFD2A77580FEC2A7D2A64B
:1000470074082513F8E6F580C2A67FE87E0312013F
:10005700727580FFD2A77580FDC2A7D2A674082546
:1000670015F8E6F580C2A67F057E0012017275803D
:10007700FFD2A77580FBC2A7D2A6AF8274082FF85C
:0A008700E6F580C2A67F05020172B3
:0901A1007F7B7E0012000380F751
:030000000200916A
:0C009100787FE4F6D8FD7581150200D8D8
:10011D00BC000BBE0029EF8DF084FFADF022E4CCC6
:10012D00F875F008EF2FFFEE33FEEC33FCEE9DEC8F
:10013D00984005FCEE9DFE0FD5F0E9E4CEFD22EDD5
:10014D00F8F5F0EE8420D21CFEADF075F008EF2F1F
:10015D00FFED33FD4007985006D5F0F222C398FD10
:05016D000FD5F0EA22AD
:10009D000201A1E493A3F8E493A34003F68001F2D7
:1000AD0008DFF48029E493A3F85407240CC8C33364
:1000BD00C4540F4420C8834004F456800146F6DF33
:1000CD00E4800B0102040810204080900194E47E2E
:1000DD00019360BCA3FF543F30E509541FFEE49328
:1000ED00A360010ECF54C025E060A840B8E493A3EF
:1000FD00FAE493A3F8E493A3C8C582C8CAC583CA1A
:10010D00F0A3C8C582C8CAC583CADFE9DEE780BED1
:0101A000005E
:00000001FF
