:0B03B1004D61747269784B65793A0069
:1002C2001203827BFF7A0379B17D017F0112030E53
:1002D2001200038F22E52260F7FB7A00750C027D83
:0802E200017F021202EA80E82C
:10036D00EF1FAC0670011E4C600A7D027CEFDCFEB7
:04037D00DDFC80EC37
:010381002259
:06039600C2A58F80D2A772
:08039C007F027EEFDEFEDFFCB4
:0103A4002236
:0A03BC00C2A6120396C2A702039C1A
:10033100CFCDCFCECCCE12016A7C007D0A12016AEC
:04034100ED2430FF78
:0A034500D2A6120396C2A702039C81
:10034F00AE07EEFB7A0064017004ED148009EB64D4
:0E035F00024A7009ED243F4480FF1203BC22C5
:100382007F381203BC7F0C1203BC7F061203BC7FB2
:04039200010203BCA5
:0A03C600AC0312034FAF040203451D
:06030E008B088A09890A30
:1003140012034FE4FDAB08AA09A90A8D8275830074
:0C03240012012BFF60061203450D80E95A
:0103300022AA
:0A029100EF24FFFDEE34FFFC7F0AAE
:08029B008E0D8F0E8C0F8D10EB
:1002A3007F017E00E4FBEBC39510E50F6480F874D7
:0E02B3008098500AAC0DAD0E1201580B80E879
:0102C100221A
:0402EA008A0A8B0BE6
:1002EE0012034FAA0CEAFF7E00D394007480948010
:0F02FE00400D120291AC0AAD0B1203311A80E6CB
:01030D0022CD
:04020A008B828A83D6
:10020E0012034FC3E58364809480400D7F2B12034D
:10021E004585831685821780107F2D120345C3E412
:10022E009582F517E49583F516AA15EAFF7E00D39D
:10023E00940074809480400D120291AC16AD17128A
:05024E0003311A80E6F7
:010253002288
:0401BF008A1A8B1BF2
:1001C30012034FAA1CEAD39400748094804037EA48
:1001D30024FFFDE434FFFC7F107E0012029BAC1A67
:1001E300AD1BCFCDCFCECCCE12016AEF540FFEC3E1
:1001F300940A74809480EE5004243080022437FFE4
:060203001203451A80BF42
:0102090022D2
:040254008A1F8B2052
:1002580012034FAA21EAFF7E00D394007480948091
:100268004026EF24FFFDEE34FFFC7F0212029BAC18
:100278001FAD20CFCDCFCECCCE12016AEF540124D2
:0802880030FF1203451A80CD7E
:01029000224B
:10000300E4F5087590FFC2932097137F14FE120343
:100013006D3097FD7F147E0012036D7508012096E5
:10002300147F147E0012036D3096FD7F147E001240
:10003300036D7508052095147F147E0012036D303F
:1000430095FD7F147E0012036D7508092094147FBB
:10005300147E0012036D3094FD7F147E0012036D35
:1000630075080D7590FFC2922097147F147E0012BD
:10007300036D3097FD7F147E0012036D7508022017
:1000830096147F147E0012036D3096FD7F147E005C
:1000930012036D7508062095147F147E0012036DFC
:1000A3003095FD7F147E0012036D75080A209414A9
:1000B3007F147E0012036D3094FD7F147E001203C3
:1000C3006D75080E7590FFC2912097147F147E0002
:1000D30012036D3097FD7F147E0012036D750803C4
:1000E3002096147F147E0012036D3096FD7F147EDC
:1000F3000012036D7508072095147F147E00120308
:100103006D3095FD7F147E0012036D75080B2094EE
:10011300147F147E0012036D3094FD7F147E001251
:07012300036D75080FAF0822
:01012A0022B2
:030000000203A553
:0C03A500787FE4F6D8FD7581220202C2C8
:10012B00BB010CE58229F582E5833AF583E0225089
:10013B0006E92582F8E622BBFE06E92582F8E222D3
:0D014B00E58229F582E5833AF583E49322ED
:10015800EF8DF0A4A8F0CF8CF0A428CE8DF0A42EBB
:02016800FE2275
:10016A00BC000BBE0029EF8DF084FFADF022E4CC79
:10017A00F875F008EF2FFFEE33FEEC33FCEE9DEC42
:10018A00984005FCEE9DFE0FD5F0E9E4CEFD22ED88
:10019A00F8F5F0EE8420D21CFEADF075F008EF2FD2
:1001AA00FFED33FD4007985006D5F0F222C398FDC3
:0501BA000FD5F0EA2260
:00000001FF
