:100003007590FE20B12912005B30B1FD12005B0533
:1000130008C3E5089408748094804003E4F508AFAE
:1000230008A8077401088002C333D8FCF4F59020B4
:10003300B0D112005B30B0FD12005BE508700575AE
:10004300080780021508AF08A8077401088002C3D7
:0800530033D8FCF4F59080ABFA
:04005B007F147E0090
:10005F00EF1FAC0670011E4C600A7D027CEFDCFEC8
:04006F00DDFC80EC48
:01007300226A
:0300000002007487
:0C007400787FE4F6D8FD758108020003D7
:00000001FF
