:1001CA0068656C6C6F00323032322F30322F313327
:0D01DA000054696D653A002000656E6400F8
:10000300750C3812020D12023F12023F7BFF7A0178
:1000130079CA1201FAE4FD7F021201A27BFF7A0181
:1000230079D01201FA7F507EC31201EF7F507EC355
:100033001201EF7F507EC31201EF7F507EC3120186
:10004300EF12023F7BFF7A0179DB1201FAAF0C1248
:1000530001737BFF7A0179E11201FAAF0B1201738D
:10006300E4FD7F021201A27BFF7A0179E31201FA18
:100073007F507EC31201EF7F507EC31201EF7F508A
:100083007EC31201EF7F507EC31201EF050BAF0B4E
:10009300EF3395E0FED3EF9464EE648094805003D5
:0900A30002000CE4F50B02000C54
:0B0234003031323334353637383900B2
:050249000308FF023470
:0801E7008F80D2A07F647E002E
:0B01EF00EF1FAC0670011E4C70F622E2
:0C021C00C2A1C2A21201E7C2A0D2A1221E
:0C022800C2A1D2A21201E7C2A0D2A12202
:0F020D007F3812021C7F0F12021C7F0602021C98
:0A023F007F0112021C7F0202021C64
:1001FA0012015AFF600C120228740129F9E43AFA32
:03020A0080EE2261
:10017300AD07ED75F00A12013875F003A42408F8F1
:100183000808E6FF120228ED75F00A120138AFF0F5
:0F019300EF75F003A42408F80808E6FF0202281D
:1001A200AE07EEFB3395E0FAEB64014A7005ED24ED
:1001B200408010AF06EF3395E0FEEF64024E700709
:0801C200ED24C0FF12021C2213
:030000000200AC4F
:0C00AC00787FE4F6D8FD75810C0200F3AB
:10013800C2D530F707B2D563F0FF05F030E70CB24F
:10014800D5F4048463F0FF05F080018430D502F40F
:0201580004227F
:10015A00BB010689828A83E0225002E722BBFE02A3
:09016A00E32289828A83E49322D6
:1000B800020003E493A3F8E493A34003F68001F25B
:1000C80008DFF48029E493A3F85407240CC8C33349
:1000D800C4540F4420C8834004F456800146F6DF18
:1000E800E4800B0102040810204080900249E47E5D
:1000F800019360BCA3FF543F30E509541FFEE4930D
:10010800A360010ECF54C025E060A840B8E493A3D3
:10011800FAE493A3F8E493A3C8C582C8CAC583CAFE
:10012800F0A3C8C582C8CAC583CADFE9DEE780BEB6
:01024E0000AF
:00000001FF
