:0E02A9001202867B317D017F011202CD80FEA4
:10009700E4F52520B1107F1412000030B1FD7F1464
:1000A70012000075250120B0107F1412000030B037
:1000B700FD7F1412000075250220B2107F14120074
:1000C7000030B2FD7F1412000075250320B3107FA6
:1000D7001412000030B3FD7F14120000752504AF21
:0100E70025F3
:0100E80022F5
:10026F005389F0438901758A18758CFCC28DD28C25
:07027F00D2A9D2AFC2B922DF
:06029A00C2A58F80D2A76F
:0802A0007F027EEFDEFEDFFCB1
:0102A8002233
:0A02C300C2A612029AC2A70202A00E
:10023300CFCDCFCECCCE1200427C007D0A1200423D
:04024300ED2430FF77
:0A024700D2A612029AC2A70202A07A
:10025100AE07EEFB7A0064017004ED148009EB64D3
:0E026100024A7009ED243F4480FF1202C322BE
:100286007F381202C37F0C1202C37F061202C37F9D
:04029600010202C39C
:0A02CD00AC03120251AF0402024715
:060210008B228A238924E1
:10021600120251E4FDAB22AA23A9248D8275830024
:0C022600120003FF60061202470D80E981
:0102320022A9
:0A01BB00EF24FFFDEE34FFFC7F0A85
:0801C5008E1E8F1F8C208D217E
:1001CD007F017E00E4FBEBC39521E5206480F8748C
:0E01DD008098500AAC1EAD1F1200300B80E857
:0101EB0022F1
:0401EC008A118B12D7
:1001F000120251AA13EAFF7E00D394007480948007
:0F020000400D1201BBAC11AD121202331A80E691
:01020F0022CC
:040134008B828A83AD
:10013800120251C3E58364809480400D7F2B120224
:100148004785830D85820E80107F2D120247C3E4F8
:100158009582F50EE49583F50DAA0CEAFF7E00D38F
:10016800940074809480400D1201BBAC0DAD0E124A
:0501780002331A80E6CD
:01017D00225F
:0400E9008A168B17D1
:1000ED00120251AA18EAD39400748094804037EA22
:1000FD0024FFFDE434FFFC7F107E001201C5AC1619
:10010D00AD17CFCDCFCECCCE120042EF540FFEC3E4
:10011D00940A74809480EE5004243080022437FFBA
:06012D001202471A80BF18
:0101330022A9
:04017E008A1B8B1C31
:10018200120251AA1DEAFF7E00D39400748094806B
:100192004026EF24FFFDEE34FFFC7F021201C5ACC6
:1001A2001BAD1CCFCDCFCECCCE120042EF540124DA
:0801B20030FF1202471A80CD54
:0101BA002222
:030000000202B742
:0C02B700787FE4F6D8FD7581250202A9CD
:10000300BB010CE58229F582E5833AF583E02250B2
:1000130006E92582F8E622BBFE06E92582F8E222FC
:0D002300E58229F582E5833AF583E4932216
:10003000EF8DF0A4A8F0CF8CF0A428CE8DF0A42EE4
:02004000FE229E
:10004200BC000BBE0029EF8DF084FFADF022E4CCA2
:10005200F875F008EF2FFFEE33FEEC33FCEE9DEC6B
:10006200984005FCEE9DFE0FD5F0E9E4CEFD22EDB1
:10007200F8F5F0EE8420D21CFEADF075F008EF2FFB
:10008200FFED33FD4007985006D5F0F222C398FDEC
:050092000FD5F0EA2289
:00000001FF
